:020000040000fa
:080000000002040000000000f2
:020000040000fa
:04000800c80200002a
:020000040000fa
:04000c00c802000026
:020000040000fa
:04001000c802000022
:020000040000fa
:04001400c80200001e
:020000040000fa
:04001800c80200001a
:020000040000fa
:04001c00c802000016
:020000040000fa
:04002000c802000012
:020000040000fa
:04002400c80200000e
:020000040000fa
:04002800c80200000a
:020000040000fa
:04002c00c802000006
:020000040000fa
:04003000c802000002
:020000040000fa
:04003400c8020000fe
:020000040000fa
:04003800c8020000fa
:020000040000fa
:04003c00c8020000f6
:020000040000fa
:04004000c8020000f2
:020000040000fa
:04004400c8020000ee
:020000040000fa
:04004800c8020000ea
:020000040000fa
:04004c00c8020000e6
:020000040000fa
:04005000c8020000e2
:020000040000fa
:04005400c8020000de
:020000040000fa
:04005800c8020000da
:020000040000fa
:04005c00c8020000d6
:020000040000fa
:04006000c8020000d2
:020000040000fa
:04006400c8020000ce
:020000040000fa
:04006800c8020000ca
:020000040000fa
:04006c00c8020000c6
:020000040000fa
:04007000c8020000c2
:020000040000fa
:04007400c8020000be
:020000040000fa
:04007800c8020000ba
:020000040000fa
:04007c00c8020000b6
:020000040000fa
:04008000c8020000b2
:020000040000fa
:04008400c8020000ae
:020000040000fa
:04008800c8020000aa
:020000040000fa
:04008c00c8020000a6
:020000040000fa
:04009000c8020000a2
:020000040000fa
:04009400c80200009e
:020000040000fa
:04009800c80200009a
:020000040000fa
:04009c00c802000096
:020000040000fa
:0400a000c802000092
:020000040000fa
:0400a400c80200008e
:020000040000fa
:0400a800c80200008a
:020000040000fa
:0400ac00c802000086
:020000040000fa
:0400b000c802000082
:020000040000fa
:0400b400c80200007e
:020000040000fa
:0400b800c80200007a
:020000040000fa
:0400bc00c802000076
:020000040000fa
:0400c000c802000072
:020000040000fa
:0400c400c80200006e
:020000040000fa
:0400c800c80200006a
:020000040000fa
:0400cc00c802000066
:020000040000fa
:0400d000c802000062
:020000040000fa
:0400d400c80200005e
:020000040000fa
:0400d800c80200005a
:020000040000fa
:0400dc00c802000056
:020000040000fa
:0400e000c802000052
:020000040000fa
:0400e400c80200004e
:020000040000fa
:0400e800c80200004a
:020000040000fa
:0400ec00c802000046
:020000040000fa
:0400f000c802000042
:020000040000fa
:0400f400c80200003e
:020000040000fa
:0400f800c80200003a
:020000040000fa
:0400fc00c802000036
:020000040000fa
:04010000c802000031
:020000040000fa
:04010400c80200002d
:020000040000fa
:04010800c802000029
:020000040000fa
:04010c00c802000025
:020000040000fa
:04011000c802000021
:020000040000fa
:04011400c80200001d
:020000040000fa
:04011800c802000019
:020000040000fa
:04011c00c802000015
:020000040000fa
:04012000c802000011
:020000040000fa
:04012400c80200000d
:020000040000fa
:04012800c802000009
:020000040000fa
:04012c00c802000005
:020000040000fa
:04013000c802000001
:020000040000fa
:04013400c8020000fd
:020000040000fa
:04013800c8020000f9
:020000040000fa
:04013c00c8020000f5
:020000040000fa
:04014000c8020000f1
:020000040000fa
:04014400c8020000ed
:020000040000fa
:04014800c8020000e9
:020000040000fa
:04020800c802000028
:020000040000fa
:04020c00c802000024
:020000040000fa
:04021000c802000020
:020000040000fa
:04021400c80200001c
:020000040000fa
:04021800c802000018
:020000040000fa
:04021c00c802000014
:020000040000fa
:04022000c802000010
:020000040000fa
:04022400c80200000c
:020000040000fa
:04022800c802000008
:020000040000fa
:04022c00c802000004
:020000040000fa
:04023000c802000000
:020000040000fa
:04023400c8020000fc
:020000040000fa
:04023800c8020000f8
:020000040000fa
:04023c00c8020000f4
:020000040000fa
:04024000c8020000f0
:020000040000fa
:04024400c8020000ec
:020000040000fa
:04024800c8020000e8
:020000040000fa
:04024c00c8020000e4
:020000040000fa
:04025000c8020000e0
:020000040000fa
:04025400c8020000dc
:020000040000fa
:04025800c8020000d8
:020000040000fa
:04025c00c8020000d4
:020000040000fa
:04026000c8020000d0
:020000040000fa
:04026400c8020000cc
:020000040000fa
:04026800c8020000c8
:020000040000fa
:04026c00c8020000c4
:020000040000fa
:04027000c8020000c0
:020000040000fa
:04027400c8020000bc
:020000040000fa
:04027800c8020000b8
:020000040000fa
:04027c00c8020000b4
:020000040000fa
:04028000c8020000b0
:020000040000fa
:04028400c8020000ac
:020000040000fa
:04028800c8020000a8
:020000040000fa
:04028c00c8020000a4
:020000040000fa
:04029000c8020000a0
:020000040000fa
:04029400c80200009c
:020000040000fa
:04029800c802000098
:020000040000fa
:04029c00c802000094
:020000040000fa
:0402a000c802000090
:020000040000fa
:0402a400c80200008c
:020000040000fa
:0402a800c802000088
:020000040000fa
:0402ac00c802000084
:020000040000fa
:0402b000c802000080
:020000040000fa
:0402b400c80200007c
:020000040000fa
:0402b800c802000078
:020000040000fa
:0402bc00c802000074
:020000040000fa
:0402c000c802000070
:020000040000fa
:0402c400c80200006c
:020000040000fa
:0402c800c802000068
:020000040000fa
:0402cc00c802000064
:020000040000fa
:0402d000c802000060
:020000040000fa
:0402d400c80200005c
:020000040000fa
:0402d800c802000058
:020000040000fa
:0402dc00c802000054
:020000040000fa
:0402e000c802000050
:020000040000fa
:0402e400c80200004c
:020000040000fa
:0402e800c802000048
:020000040000fa
:0402ec00c802000044
:020000040000fa
:0402f000c802000040
:020000040000fa
:0402f400c80200003c
:020000040000fa
:0402f800c802000038
:020000040000fa
:0402fc00c802000034
:020000040000fa
:04030000c80200002f
:020000040000fa
:04030400c80200002b
:020000040000fa
:04030800c802000027
:020000040000fa
:04030c00c802000023
:020000040000fa
:04031000c80200001f
:020000040000fa
:04031400c80200001b
:020000040000fa
:04031800c802000017
:020000040000fa
:04031c00c802000013
:020000040000fa
:04032000c80200000f
:020000040000fa
:04032400c80200000b
:020000040000fa
:04032800c802000007
:020000040000fa
:04032c00c802000003
:020000040000fa
:04033000c8020000ff
:020000040000fa
:04033400c8020000fb
:020000040000fa
:04033800c8020000f7
:020000040000fa
:04033c00c8020000f3
:020000040000fa
:04034000c8020000ef
:020000040000fa
:04034400c8020000eb
:020000040000fa
:04034800c8020000e7
:020000040000fa
:100400008f8320000e7f22000e0188000000000074
:10041000000020000000e000020032000001200087
:1004200020028800140007005b0007000000e000c5
:1004300003003a00a056200001002000020037000f
:100440000000200001002000810f70000100320038
:1004500014000700000020000000e000020032004d
:100460000000020000000000c205020000000000c1
:100470000040da000000fe004440a9000000200017
:100480000000e0000300320000002000a00188000e
:100490004440a800000006008a1f78008b1f7800e7
:1004a0000000060091018800800478000000eb0045
:1004b0001a003700e284440032a0b4009905ba0063
:1004c000e284440032a0b4009906ba00e2844400f9
:1004d00032a0b4000006eb00476fde00fd07b2005b
:1004e000636ce10003003a00ebff07000000eb0043
:1004f0000a003700606ce10004003a00005deb0088
:100500008b05e900fdff3e00040037006168e10053
:10051000010032000086eb000b00070019c7ba008b
:100520001905ba000e04e00003003a000a00e000da
:10053000e0ff3a0000000600fe07b2009e018800be
:100540008a047800f5ff3700395dba008b05e900b1
:100550000c003200295dba008b05e900080032006a
:100560000c00e00003003a00e284440032a0b40032
:10057000f5ff370019ddba008b05e900faff3a00f4
:100580008904e800e184440032a0b40000000600c1
:0c0590000040da000000fe000000050042
:020000040000fa
:10059c000200fa00004f78001602a80000000000cc
:1005ac00b0108000610060000000e000fcff3a0029
:1005bc008a40a900c00720009010880000000000ad
:1005cc0050048000640060000000e000fcff32007a
:1005dc008a40a9001222ef000000000050048000a5
:1005ec00640060000000e000fcff32008a40a900bb
:1005fc001e00fb00901088000000000050048000da
:10060c00640060000000e000fcff32008a40a9009a
:10061c001642a80000000000b010800064006000ca
:10062c000000e000fcff3a008a40a9000080fa00bc
:10063c00000006000200fa002c83a8002ca3a800de
:10064c00c022ef00c822ef0017e2a900d009200059
:10065c00a010880017e2a8008a40a90020032000ff
:10066c004901070080c3b300c9ff070090c3b30062
:10067c00c7ff070040c1b300c5ff070000c8bf009b
:10068c006f4f600000c7b3001e4f70001e40780013
:10069c00bfff070000c8bf000080fb004400de0065
:1006ac00004f78009e40780063cf600040c5b300d7
:1006bc001e4f70001e407800b5ff0700c0c6b30087
:1006cc00b3ff0700800c20002f01070080c3b3008c
:1006dc00afff0700c0c0b300adff070010c0b300f0
:1006ec00abff070020002000270107000080fa0064
:1006fc00000006000400fa002047980031479800db
:10070c0000c4b300004f78002e4090000080fb0026
:10071c004600dd00804078001e40780000c060007c
:10072c00004f78003e4090006f40600030479800ca
:10073c003e4090001e4f700000c8b3001e4f70006a
:10074c001e40780092ff07000080fa0000000600af
:10075c000200fa00004f78001602a800000000000a
:10076c00b0108000610060000000e000fcff3a0067
:10077c008a40a900c00720009010880000000000eb
:10078c0050048000640060000000e000fcff3200b8
:10079c008a40a9000004200090108800000000008e
:1007ac0050048000640060000000e000fcff320098
:1007bc008a40a9001e00fb00901088000000000079
:1007cc0050048000640060000000e000fcff320078
:1007dc008a40a9001642a80000000000b01080005a
:1007ec00640060000000e000fcff3a008a40a900b1
:1007fc000080fa00000006000400fa0010079800c0
:10080c000000eb00000f78000b0037001e0090007a
:10081c0010407800ceff07001e0090000000e8009a
:10082c00100798001e009000104078000004e000b3
:10083c00050032001e0fe8001e007800e70f500084
:10084c00f2ff340001003700000000008040eb0094
:10085c0010c0b300a7ff07000b0037001e0090006c
:10086c0010407800baff07001e0090000000e8005e
:10087c00100798001e009000104078000004e00063
:10088c00050032001e0fe8001e007800ef0f50002c
:10089c00f2ff340001003700000000000080fa0075
:1008ac00000006000600fa001007980021079800c7
:1008bc000000eb00000f78002e0090000040780044
:1008cc008040eb008bff07001e0078009e0090001c
:1008dc00008040001040780080407800100020001c
:1008ec001c00070010002000000f78000e003700dd
:1008fc001e0078009e0090000080400010407800a0
:10090c000004e0000d0032001e0078009e009000f4
:10091c0000804000104078008040780010002000db
:10092c00330007001e0fe800700220009e007800c4
:10093c00808f5000eeff34000100370000000000f3
:10094c00c1c0b3000000eb00410007000080fa00ba
:10095c00000006000400fa00000f78002147980000
:10096c001602a80000000000b010800061006000ba
:10097c000000e000fcff3a008a40a900c0072000fc
:10098c00901088000000000050048000640060009b
:10099c000000e000fcff32008a40a9001e00780035
:1009ac004600dd000070a0009010880000000000e0
:1009bc0050048000640060000000e000fcff320086
:1009cc008a40a9002e4090000000fb009010880087
:1009dc000000000050048000640060000000e00093
:1009ec00fcff32008a40a9000080fa0000000600db
:1009fc000400fa00000f7800214798001e007800d0
:100a0c004600dd000070a00090108800000000007f
:100a1c0050048000640060000000e000fcff320025
:100a2c008a40a9002e4090000000fb009010880026
:100a3c000000000050048000640060000000e00032
:100a4c00fcff32008a40a9000080fa00000006007a
:100a5c000400fa00000f7800214798001e0078006f
:100a6c004600dd009010880000000000500480005b
:100a7c00640060000000e000fcff32008a40a90026
:100a8c002e4090000000fb00901088000000000039
:100a9c0050048000640060000000e000fcff3200a5
:100aac008a40a9001642a80000000000b010800087
:100abc00640060000000e000fcff3a008a40a900de
:080acc000080fa0000000600a2
:020000040000fa
:100ad40000080000020000000200000017000000ef
:100ae4000208000036000000020000005e2820001a
:100af4005e2e5e0020295e00202028003e205e003d
:100b04002e5e29003e2020005e2820005e2e5e001e
:100b140020295e0020203c00285e2e005e203c0040
:100b240029202000762820005e2e5e0020297600f1
:080b3400202000000000000079
:020000040000fa
:100b3c000000fa00213a8000f08f2f000080600046
:100b4c00203a8800bbfe07008000eb0020802000cc
:100b5c0054ff07000080fa00000006000000fa00b5
:100b6c00401f20000800070080c1b30088fe07006a
:100b7c000080fa00000006000000fa00ecff0700fd
:100b8c00f6ff0700feff37000400fa00100798007c
:100b9c000000eb00000f7800020037000a0007008d
:100bac001e0fe8001e0090009e007800808f500001
:100bbc00faff35000080fa00000006003906090033
:100bcc000000000000000600733e09000000000059
:040bdc00000006000f
:020000040000fa
:020000040001f9
:0457f8000ff90000a5
:020000040000fa
:020000040001f9
:0457fc007f3f0000eb
:00000001FF
